{
  "contractName": "message",
  "abi": [
    {
      "inputs": [],
      "name": "count_false",
      "outputs": [
        {
          "internalType": "uint256",
          "name": "",
          "type": "uint256"
        }
      ],
      "stateMutability": "view",
      "type": "function",
      "constant": true
    },
    {
      "inputs": [],
      "name": "count_true",
      "outputs": [
        {
          "internalType": "uint256",
          "name": "",
          "type": "uint256"
        }
      ],
      "stateMutability": "view",
      "type": "function",
      "constant": true
    },
    {
      "inputs": [],
      "name": "message",
      "outputs": [
        {
          "internalType": "string",
          "name": "",
          "type": "string"
        }
      ],
      "stateMutability": "view",
      "type": "function",
      "constant": true
    },
    {
      "inputs": [
        {
          "internalType": "uint256",
          "name": "",
          "type": "uint256"
        }
      ],
      "name": "message_array",
      "outputs": [
        {
          "internalType": "string",
          "name": "",
          "type": "string"
        }
      ],
      "stateMutability": "view",
      "type": "function",
      "constant": true
    },
    {
      "inputs": [],
      "name": "msg_status",
      "outputs": [
        {
          "internalType": "bool",
          "name": "",
          "type": "bool"
        }
      ],
      "stateMutability": "view",
      "type": "function",
      "constant": true
    },
    {
      "inputs": [
        {
          "internalType": "uint256",
          "name": "",
          "type": "uint256"
        }
      ],
      "name": "vote_ballet",
      "outputs": [
        {
          "internalType": "uint256",
          "name": "",
          "type": "uint256"
        }
      ],
      "stateMutability": "view",
      "type": "function",
      "constant": true
    },
    {
      "inputs": [
        {
          "internalType": "string",
          "name": "msg1",
          "type": "string"
        }
      ],
      "name": "messageArray",
      "outputs": [
        {
          "internalType": "uint256",
          "name": "",
          "type": "uint256"
        }
      ],
      "stateMutability": "nonpayable",
      "type": "function"
    },
    {
      "inputs": [
        {
          "internalType": "uint256",
          "name": "mesgNo",
          "type": "uint256"
        }
      ],
      "name": "selectMessage",
      "outputs": [
        {
          "internalType": "string",
          "name": "",
          "type": "string"
        }
      ],
      "stateMutability": "nonpayable",
      "type": "function"
    },
    {
      "inputs": [
        {
          "internalType": "uint256",
          "name": "oneZero",
          "type": "uint256"
        }
      ],
      "name": "vote",
      "outputs": [
        {
          "internalType": "uint256[]",
          "name": "",
          "type": "uint256[]"
        }
      ],
      "stateMutability": "nonpayable",
      "type": "function"
    },
    {
      "inputs": [],
      "name": "removeVote",
      "outputs": [],
      "stateMutability": "nonpayable",
      "type": "function"
    },
    {
      "inputs": [],
      "name": "countVote",
      "outputs": [
        {
          "internalType": "uint256",
          "name": "",
          "type": "uint256"
        },
        {
          "internalType": "uint256",
          "name": "",
          "type": "uint256"
        }
      ],
      "stateMutability": "nonpayable",
      "type": "function"
    },
    {
      "inputs": [],
      "name": "Validate",
      "outputs": [
        {
          "internalType": "bool",
          "name": "",
          "type": "bool"
        }
      ],
      "stateMutability": "nonpayable",
      "type": "function"
    }
  ],
  "bytecode": "0x60806040526000600355600060045534801561001a57600080fd5b5061101a8061002a6000396000f3fe608060405234801561001057600080fd5b50600436106100b45760003560e01c8063503a2fdc11610071578063503a2fdc146101905780639fdbc2d9146101ae578063b253b8e9146101de578063df1289be1461020e578063e21f37ce1461022c578063e38759c21461024a576100b4565b80630121b93f146100b957806315409cf7146100e95780631710e8bd146101195780631a6cd2fd14610149578063302a72931461016857806349aa4ee214610186575b600080fd5b6100d360048036038101906100ce9190610724565b610268565b6040516100e0919061080f565b60405180910390f35b61010360048036038101906100fe9190610724565b6102eb565b60405161011091906108c1565b60405180910390f35b610133600480360381019061012e9190610724565b6103ac565b60405161014091906108f2565b60405180910390f35b6101516103d0565b60405161015f92919061090d565b60405180910390f35b61017061047c565b60405161017d9190610951565b60405180910390f35b61018e6104e5565b005b610198610539565b6040516101a591906108f2565b60405180910390f35b6101c860048036038101906101c39190610724565b61053f565b6040516101d591906108c1565b60405180910390f35b6101f860048036038101906101f39190610aa1565b6105eb565b60405161020591906108f2565b60405180910390f35b610216610633565b60405161022391906108f2565b60405180910390f35b610234610639565b60405161024191906108c1565b60405180910390f35b6102526106c7565b60405161025f9190610951565b60405180910390f35b6060600182908060018154018082558091505060019003906000526020600020016000909190919091505560018054806020026020016040519081016040528092919081815260200182805480156102df57602002820191906000526020600020905b8154815260200190600101908083116102cb575b50505050509050919050565b60606000828154811061030157610300610aea565b5b90600052602060002001600290816103199190610d50565b506002805461032790610b48565b80601f016020809104026020016040519081016040528092919081815260200182805461035390610b48565b80156103a05780601f10610375576101008083540402835291602001916103a0565b820191906000526020600020905b81548152906001019060200180831161038357829003601f168201915b50505050509050919050565b600181815481106103bc57600080fd5b906000526020600020016000915090505481565b60008060005b60018054905081101561046d5760018082815481106103f8576103f7610aea565b5b90600052602060002001540361041e5760016003546104179190610e67565b6003819055505b60006001828154811061043457610433610aea565b5b90600052602060002001540361045a5760016004546104539190610e67565b6004819055505b808061046590610e9b565b9150506103d6565b50600354600454915091509091565b600080600180549050905060045460035411156104b3576001600560006101000a81548160ff0219169083151502179055506104cf565b6000600560006101000a81548160ff0219169083151502179055505b600560009054906101000a900460ff1691505090565b6000600180549050905060005b8181101561053557600180548061050c5761050b610ee3565b5b60019003818190600052602060002001600090559055808061052d90610e9b565b9150506104f2565b5050565b60045481565b6000818154811061054f57600080fd5b90600052602060002001600091509050805461056a90610b48565b80601f016020809104026020016040519081016040528092919081815260200182805461059690610b48565b80156105e35780601f106105b8576101008083540402835291602001916105e3565b820191906000526020600020905b8154815290600101906020018083116105c657829003601f168201915b505050505081565b600080829080600181540180825580915050600190039060005260206000200160009091909190915090816106209190610f12565b5060008080549050905080915050919050565b60035481565b6002805461064690610b48565b80601f016020809104026020016040519081016040528092919081815260200182805461067290610b48565b80156106bf5780601f10610694576101008083540402835291602001916106bf565b820191906000526020600020905b8154815290600101906020018083116106a257829003601f168201915b505050505081565b600560009054906101000a900460ff1681565b6000604051905090565b600080fd5b600080fd5b6000819050919050565b610701816106ee565b811461070c57600080fd5b50565b60008135905061071e816106f8565b92915050565b60006020828403121561073a576107396106e4565b5b60006107488482850161070f565b91505092915050565b600081519050919050565b600082825260208201905092915050565b6000819050602082019050919050565b610786816106ee565b82525050565b6000610798838361077d565b60208301905092915050565b6000602082019050919050565b60006107bc82610751565b6107c6818561075c565b93506107d18361076d565b8060005b838110156108025781516107e9888261078c565b97506107f4836107a4565b9250506001810190506107d5565b5085935050505092915050565b6000602082019050818103600083015261082981846107b1565b905092915050565b600081519050919050565b600082825260208201905092915050565b60005b8381101561086b578082015181840152602081019050610850565b60008484015250505050565b6000601f19601f8301169050919050565b600061089382610831565b61089d818561083c565b93506108ad81856020860161084d565b6108b681610877565b840191505092915050565b600060208201905081810360008301526108db8184610888565b905092915050565b6108ec816106ee565b82525050565b600060208201905061090760008301846108e3565b92915050565b600060408201905061092260008301856108e3565b61092f60208301846108e3565b9392505050565b60008115159050919050565b61094b81610936565b82525050565b60006020820190506109666000830184610942565b92915050565b600080fd5b600080fd5b7f4e487b7100000000000000000000000000000000000000000000000000000000600052604160045260246000fd5b6109ae82610877565b810181811067ffffffffffffffff821117156109cd576109cc610976565b5b80604052505050565b60006109e06106da565b90506109ec82826109a5565b919050565b600067ffffffffffffffff821115610a0c57610a0b610976565b5b610a1582610877565b9050602081019050919050565b82818337600083830152505050565b6000610a44610a3f846109f1565b6109d6565b905082815260208101848484011115610a6057610a5f610971565b5b610a6b848285610a22565b509392505050565b600082601f830112610a8857610a8761096c565b5b8135610a98848260208601610a31565b91505092915050565b600060208284031215610ab757610ab66106e4565b5b600082013567ffffffffffffffff811115610ad557610ad46106e9565b5b610ae184828501610a73565b91505092915050565b7f4e487b7100000000000000000000000000000000000000000000000000000000600052603260045260246000fd5b7f4e487b7100000000000000000000000000000000000000000000000000000000600052602260045260246000fd5b60006002820490506001821680610b6057607f821691505b602082108103610b7357610b72610b19565b5b50919050565b600081549050610b8881610b48565b9050919050565b60008190508160005260206000209050919050565b60008190508160005260206000209050919050565b60006020601f8301049050919050565b600082821b905092915050565b600060088302610c067fffffffffffffffffffffffffffffffffffffffffffffffffffffffffffffffff82610bc9565b610c108683610bc9565b95508019841693508086168417925050509392505050565b6000819050919050565b6000610c4d610c48610c43846106ee565b610c28565b6106ee565b9050919050565b6000819050919050565b610c6783610c32565b610c7b610c7382610c54565b848454610bd6565b825550505050565b600090565b610c90610c83565b610c9b818484610c5e565b505050565b5b81811015610cbf57610cb4600082610c88565b600181019050610ca1565b5050565b601f821115610d0457610cd581610b8f565b610cde84610bb9565b81016020851015610ced578190505b610d01610cf985610bb9565b830182610ca0565b50505b505050565b600082821c905092915050565b6000610d2760001984600802610d09565b1980831691505092915050565b6000610d408383610d16565b9150826002028217905092915050565b818103610d5e575050610e36565b610d6782610b79565b67ffffffffffffffff811115610d8057610d7f610976565b5b610d8a8254610b48565b610d95828285610cc3565b6000601f831160018114610dc45760008415610db2578287015490505b610dbc8582610d34565b865550610e2f565b601f198416610dd287610ba4565b9650610ddd86610b8f565b60005b82811015610e0557848901548255600182019150600185019450602081019050610de0565b86831015610e225784890154610e1e601f891682610d16565b8355505b6001600288020188555050505b5050505050505b565b7f4e487b7100000000000000000000000000000000000000000000000000000000600052601160045260246000fd5b6000610e72826106ee565b9150610e7d836106ee565b9250828201905080821115610e9557610e94610e38565b5b92915050565b6000610ea6826106ee565b91507fffffffffffffffffffffffffffffffffffffffffffffffffffffffffffffffff8203610ed857610ed7610e38565b5b600182019050919050565b7f4e487b7100000000000000000000000000000000000000000000000000000000600052603160045260246000fd5b610f1b82610831565b67ffffffffffffffff811115610f3457610f33610976565b5b610f3e8254610b48565b610f49828285610cc3565b600060209050601f831160018114610f7c5760008415610f6a578287015190505b610f748582610d34565b865550610fdc565b601f198416610f8a86610b8f565b60005b82811015610fb257848901518255600182019150602085019450602081019050610f8d565b86831015610fcf5784890151610fcb601f891682610d16565b8355505b6001600288020188555050505b50505050505056fea2646970667358221220e954f221a35826dfde01397b3ffabb94756058f5cb7456c286707156545d26c964736f6c63430008130033",
  "immutableReferences": {},
  "source": "pragma solidity >= 0.8.0;\n    contract message{\n        // to store input messgae to an array \n        string[] public message_array;\n        // to count ture , false vote for msgs\n        uint[] public vote_ballet;\n        // message choosen for voting\n        string public message;\n        // yes count for msg \n        uint public count_true = 0;\n        // NO count for msg \n        uint public count_false = 0;\n\n        bool public msg_status;\n\n\n    // All messages transmitted from the\n    // v2x ecosystem are collected by the function messageArray(),\n    // which then saves them to an array. The array that holds\n    // messages is referred to as the message array, which accepts\n    // input in strings. The total amount of messages that are kept in\n    // this array is what is returned whenever this function is called\n\n\n    //( to store messge from user input to array) \n    function messageArray(string memory msg1) public returns(uint){\n        message_array.push(msg1);\n        uint messageCount = message_array.length;\n        return messageCount;\n    }\n\n    // The selectMessage() function is used to choose a message\n    // to be sent for voting. As an input, this function takes the\n    // messages index number stored in the array as a parameter.\n    // When this function is called, the message located at the\n    // specified index being passed to it as the input is shown.\n\n    // Select message for voting process\n    function selectMessage(uint mesgNo) public returns(string memory){ \n        message = message_array[mesgNo];\n        return message;\n                \n    }\n\n    // which will be used to vote for the incoming\n    // messages, and the values taken for the vote for the messagesare \n    // boolean values. This function accepts votes as input and\n    // then adds them to the vote ballet array\n\n    //  pushes vote for msg to the array [vite ballet]\n    function vote(uint oneZero) public returns(uint[] memory){\n        vote_ballet.push(oneZero);\n        return vote_ballet;\n    }\n    \n\n    // Function to remove votes\n    function removeVote() public{\n        uint len = vote_ballet.length;\n        for (uint i = 0; i< len; i++){\n            vote_ballet.pop();\n        }\n    }\n\n\n    // the countVote() function, which\n    // counts the true and false counts of each message being sent\n    // to the verification process\n\n // to count the no of yes, no for a messge \n    function countVote() public returns(uint, uint){\n        for (uint i = 0; i<vote_ballet.length; i++){\n            if (vote_ballet[i] == 1){\n                count_true = count_true + 1;\n            }\n            if (vote_ballet[i] == 0){\n                count_false = count_false + 1;\n            }\n        }\n        return (count_true,count_false);\n    }\n\n    //  It is the responsibility of the Validate() method to determine\n    // whether or not the incoming message can be trusted. This\n    // function accepts a true and a false count as input and provides\n    // back the status of the input message, indicating whether the\n    // message was trustworthy or not reliable.\n\n    function Validate() public returns(bool){\n        uint total = vote_ballet.length;\n        if(count_true>count_false){\n            msg_status = true;\n        }\n        else{\n            msg_status = false;\n        }\n        return msg_status;\n        \n    }\n\n\n\n\n\n\n\n\n    }",
  "sourcePath": "/home/neeraj/Documents/v2x_Polygon/contracts/v2x.sol",
  "compiler": {
    "name": "solc",
    "version": "0.8.19+commit.7dd6d404.Emscripten.clang"
  },
  "schemaVersion": "3.4.13",
  "updatedAt": "2023-06-08T10:09:48.995Z",
  "networkType": "ethereum",
  "devdoc": {
    "kind": "dev",
    "methods": {},
    "version": 1
  },
  "userdoc": {
    "kind": "user",
    "methods": {},
    "version": 1
  }
}